{
  "_format": "hh-sol-artifact-1",
  "contractName": "MyEpicNFT",
  "sourceName": "contracts/MyEpicNFT.sol",
  "abi": [
    {
      "inputs": [],
      "stateMutability": "nonpayable",
      "type": "constructor"
    },
    {
      "anonymous": false,
      "inputs": [
        {
          "indexed": true,
          "internalType": "address",
          "name": "owner",
          "type": "address"
        },
        {
          "indexed": true,
          "internalType": "address",
          "name": "approved",
          "type": "address"
        },
        {
          "indexed": true,
          "internalType": "uint256",
          "name": "tokenId",
          "type": "uint256"
        }
      ],
      "name": "Approval",
      "type": "event"
    },
    {
      "anonymous": false,
      "inputs": [
        {
          "indexed": true,
          "internalType": "address",
          "name": "owner",
          "type": "address"
        },
        {
          "indexed": true,
          "internalType": "address",
          "name": "operator",
          "type": "address"
        },
        {
          "indexed": false,
          "internalType": "bool",
          "name": "approved",
          "type": "bool"
        }
      ],
      "name": "ApprovalForAll",
      "type": "event"
    },
    {
      "anonymous": false,
      "inputs": [
        {
          "indexed": false,
          "internalType": "address",
          "name": "sender",
          "type": "address"
        },
        {
          "indexed": false,
          "internalType": "uint256",
          "name": "tokenId",
          "type": "uint256"
        }
      ],
      "name": "NewEpicNFTMinted",
      "type": "event"
    },
    {
      "anonymous": false,
      "inputs": [
        {
          "indexed": true,
          "internalType": "address",
          "name": "from",
          "type": "address"
        },
        {
          "indexed": true,
          "internalType": "address",
          "name": "to",
          "type": "address"
        },
        {
          "indexed": true,
          "internalType": "uint256",
          "name": "tokenId",
          "type": "uint256"
        }
      ],
      "name": "Transfer",
      "type": "event"
    },
    {
      "anonymous": false,
      "inputs": [
        {
          "indexed": false,
          "internalType": "uint256",
          "name": "tokenId",
          "type": "uint256"
        }
      ],
      "name": "getTokenId",
      "type": "event"
    },
    {
      "inputs": [],
      "name": "_getTokenId",
      "outputs": [],
      "stateMutability": "nonpayable",
      "type": "function"
    },
    {
      "inputs": [
        {
          "internalType": "address",
          "name": "to",
          "type": "address"
        },
        {
          "internalType": "uint256",
          "name": "tokenId",
          "type": "uint256"
        }
      ],
      "name": "approve",
      "outputs": [],
      "stateMutability": "nonpayable",
      "type": "function"
    },
    {
      "inputs": [
        {
          "internalType": "address",
          "name": "owner",
          "type": "address"
        }
      ],
      "name": "balanceOf",
      "outputs": [
        {
          "internalType": "uint256",
          "name": "",
          "type": "uint256"
        }
      ],
      "stateMutability": "view",
      "type": "function"
    },
    {
      "inputs": [
        {
          "internalType": "uint256",
          "name": "tokenId",
          "type": "uint256"
        }
      ],
      "name": "getApproved",
      "outputs": [
        {
          "internalType": "address",
          "name": "",
          "type": "address"
        }
      ],
      "stateMutability": "view",
      "type": "function"
    },
    {
      "inputs": [
        {
          "internalType": "address",
          "name": "owner",
          "type": "address"
        },
        {
          "internalType": "address",
          "name": "operator",
          "type": "address"
        }
      ],
      "name": "isApprovedForAll",
      "outputs": [
        {
          "internalType": "bool",
          "name": "",
          "type": "bool"
        }
      ],
      "stateMutability": "view",
      "type": "function"
    },
    {
      "inputs": [],
      "name": "makeAnEpicNFT",
      "outputs": [],
      "stateMutability": "nonpayable",
      "type": "function"
    },
    {
      "inputs": [],
      "name": "name",
      "outputs": [
        {
          "internalType": "string",
          "name": "",
          "type": "string"
        }
      ],
      "stateMutability": "view",
      "type": "function"
    },
    {
      "inputs": [
        {
          "internalType": "uint256",
          "name": "tokenId",
          "type": "uint256"
        }
      ],
      "name": "ownerOf",
      "outputs": [
        {
          "internalType": "address",
          "name": "",
          "type": "address"
        }
      ],
      "stateMutability": "view",
      "type": "function"
    },
    {
      "inputs": [
        {
          "internalType": "uint256",
          "name": "tokenId",
          "type": "uint256"
        }
      ],
      "name": "pickRandomFirstWord",
      "outputs": [
        {
          "internalType": "string",
          "name": "",
          "type": "string"
        }
      ],
      "stateMutability": "view",
      "type": "function"
    },
    {
      "inputs": [
        {
          "internalType": "uint256",
          "name": "tokenId",
          "type": "uint256"
        }
      ],
      "name": "pickRandomSecondWord",
      "outputs": [
        {
          "internalType": "string",
          "name": "",
          "type": "string"
        }
      ],
      "stateMutability": "view",
      "type": "function"
    },
    {
      "inputs": [
        {
          "internalType": "uint256",
          "name": "tokenId",
          "type": "uint256"
        }
      ],
      "name": "pickRandomThirdWord",
      "outputs": [
        {
          "internalType": "string",
          "name": "",
          "type": "string"
        }
      ],
      "stateMutability": "view",
      "type": "function"
    },
    {
      "inputs": [
        {
          "internalType": "address",
          "name": "from",
          "type": "address"
        },
        {
          "internalType": "address",
          "name": "to",
          "type": "address"
        },
        {
          "internalType": "uint256",
          "name": "tokenId",
          "type": "uint256"
        }
      ],
      "name": "safeTransferFrom",
      "outputs": [],
      "stateMutability": "nonpayable",
      "type": "function"
    },
    {
      "inputs": [
        {
          "internalType": "address",
          "name": "from",
          "type": "address"
        },
        {
          "internalType": "address",
          "name": "to",
          "type": "address"
        },
        {
          "internalType": "uint256",
          "name": "tokenId",
          "type": "uint256"
        },
        {
          "internalType": "bytes",
          "name": "data",
          "type": "bytes"
        }
      ],
      "name": "safeTransferFrom",
      "outputs": [],
      "stateMutability": "nonpayable",
      "type": "function"
    },
    {
      "inputs": [
        {
          "internalType": "address",
          "name": "operator",
          "type": "address"
        },
        {
          "internalType": "bool",
          "name": "approved",
          "type": "bool"
        }
      ],
      "name": "setApprovalForAll",
      "outputs": [],
      "stateMutability": "nonpayable",
      "type": "function"
    },
    {
      "inputs": [
        {
          "internalType": "bytes4",
          "name": "interfaceId",
          "type": "bytes4"
        }
      ],
      "name": "supportsInterface",
      "outputs": [
        {
          "internalType": "bool",
          "name": "",
          "type": "bool"
        }
      ],
      "stateMutability": "view",
      "type": "function"
    },
    {
      "inputs": [],
      "name": "symbol",
      "outputs": [
        {
          "internalType": "string",
          "name": "",
          "type": "string"
        }
      ],
      "stateMutability": "view",
      "type": "function"
    },
    {
      "inputs": [
        {
          "internalType": "uint256",
          "name": "tokenId",
          "type": "uint256"
        }
      ],
      "name": "tokenURI",
      "outputs": [
        {
          "internalType": "string",
          "name": "",
          "type": "string"
        }
      ],
      "stateMutability": "view",
      "type": "function"
    },
    {
      "inputs": [
        {
          "internalType": "address",
          "name": "from",
          "type": "address"
        },
        {
          "internalType": "address",
          "name": "to",
          "type": "address"
        },
        {
          "internalType": "uint256",
          "name": "tokenId",
          "type": "uint256"
        }
      ],
      "name": "transferFrom",
      "outputs": [],
      "stateMutability": "nonpayable",
      "type": "function"
    }
  ],
  "bytecode": "0x608060405260405180610160016040528061012f81526020016200430561012f913960089080519060200190620000389291906200067e565b506040518060c001604052806040518060400160405280600281526020017f444a00000000000000000000000000000000000000000000000000000000000081525081526020016040518060400160405280600481526020017f4a6164650000000000000000000000000000000000000000000000000000000081525081526020016040518060400160405280600381526020017f746878000000000000000000000000000000000000000000000000000000000081525081526020016040518060400160405280600481526020017f662a2a6b0000000000000000000000000000000000000000000000000000000081525081526020016040518060400160405280600481526020017f2a75632a0000000000000000000000000000000000000000000000000000000081525081526020016040518060400160405280600681526020017f617269616e6100000000000000000000000000000000000000000000000000008152508152506009906006620001b69291906200070f565b506040518060c001604052806040518060400160405280600281526020017f444a00000000000000000000000000000000000000000000000000000000000081525081526020016040518060400160405280600481526020017f4a6164650000000000000000000000000000000000000000000000000000000081525081526020016040518060400160405280600381526020017f746878000000000000000000000000000000000000000000000000000000000081525081526020016040518060400160405280600481526020017f662a2a6b0000000000000000000000000000000000000000000000000000000081525081526020016040518060400160405280600481526020017f2a75632a0000000000000000000000000000000000000000000000000000000081525081526020016040518060400160405280600681526020017f617269616e610000000000000000000000000000000000000000000000000000815250815250600a906006620003349291906200070f565b506040518060c001604052806040518060400160405280600281526020017f444a00000000000000000000000000000000000000000000000000000000000081525081526020016040518060400160405280600481526020017f4a6164650000000000000000000000000000000000000000000000000000000081525081526020016040518060400160405280600381526020017f746878000000000000000000000000000000000000000000000000000000000081525081526020016040518060400160405280600481526020017f662a2a6b0000000000000000000000000000000000000000000000000000000081525081526020016040518060400160405280600481526020017f2a75632a0000000000000000000000000000000000000000000000000000000081525081526020016040518060400160405280600681526020017f617269616e610000000000000000000000000000000000000000000000000000815250815250600b906006620004b29291906200070f565b50348015620004c057600080fd5b506040518060400160405280600981526020017f5371756172654e465400000000000000000000000000000000000000000000008152506040518060400160405280600681526020017f53515541524500000000000000000000000000000000000000000000000000008152508160009080519060200190620005459291906200067e565b5080600190805190602001906200055e9291906200067e565b505050620005ac6040518060400160405280601881526020017f54686973206973206d79204e465420636f6e74726163742e0000000000000000815250620005b260201b62000ff91760201c565b62000930565b6200065281604051602401620005c99190620008a7565b6040516020818303038152906040527f41304fac000000000000000000000000000000000000000000000000000000007bffffffffffffffffffffffffffffffffffffffffffffffffffffffff19166020820180517bffffffffffffffffffffffffffffffffffffffffffffffffffffffff83818316178352505050506200065560201b60201c565b50565b60008151905060006a636f6e736f6c652e6c6f679050602083016000808483855afa5050505050565b8280546200068c90620008fa565b90600052602060002090601f016020900481019282620006b05760008555620006fc565b82601f10620006cb57805160ff1916838001178555620006fc565b82800160010185558215620006fc579182015b82811115620006fb578251825591602001919060010190620006de565b5b5090506200070b919062000776565b5090565b82805482825590600052602060002090810192821562000763579160200282015b8281111562000762578251829080519060200190620007519291906200067e565b509160200191906001019062000730565b5b50905062000772919062000795565b5090565b5b808211156200079157600081600090555060010162000777565b5090565b5b80821115620007b95760008181620007af9190620007bd565b5060010162000796565b5090565b508054620007cb90620008fa565b6000825580601f10620007df575062000800565b601f016020900490600052602060002090810190620007ff919062000776565b5b50565b600081519050919050565b600082825260208201905092915050565b60005b838110156200083f57808201518184015260208101905062000822565b838111156200084f576000848401525b50505050565b6000601f19601f8301169050919050565b6000620008738262000803565b6200087f81856200080e565b9350620008918185602086016200081f565b6200089c8162000855565b840191505092915050565b60006020820190508181036000830152620008c3818462000866565b905092915050565b7f4e487b7100000000000000000000000000000000000000000000000000000000600052602260045260246000fd5b600060028204905060018216806200091357607f821691505b602082108114156200092a5762000929620008cb565b5b50919050565b6139c580620009406000396000f3fe608060405234801561001057600080fd5b50600436106101165760003560e01c8063824044e1116100a2578063b88d4fde11610071578063b88d4fde146102f1578063c575757a1461030d578063c87b56dd1461033d578063de9d132f1461036d578063e985e9c51461037757610116565b8063824044e11461027d57806395d89b4114610287578063a22cb465146102a5578063b187301f146102c157610116565b806323b872dd116100e957806323b872dd146101b55780632de38d68146101d157806342842e0e146102015780636352211e1461021d57806370a082311461024d57610116565b806301ffc9a71461011b57806306fdde031461014b578063081812fc14610169578063095ea7b314610199575b600080fd5b610135600480360381019061013091906124db565b6103a7565b6040516101429190612523565b60405180910390f35b610153610489565b60405161016091906125d7565b60405180910390f35b610183600480360381019061017e919061262f565b61051b565b604051610190919061269d565b60405180910390f35b6101b360048036038101906101ae91906126e4565b610561565b005b6101cf60048036038101906101ca9190612724565b610679565b005b6101eb60048036038101906101e6919061262f565b6106d9565b6040516101f891906125d7565b60405180910390f35b61021b60048036038101906102169190612724565b61084f565b005b6102376004803603810190610232919061262f565b61086f565b604051610244919061269d565b60405180910390f35b61026760048036038101906102629190612777565b6108f6565b60405161027491906127b3565b60405180910390f35b6102856109ae565b005b61028f6109f6565b60405161029c91906125d7565b60405180910390f35b6102bf60048036038101906102ba91906127fa565b610a88565b005b6102db60048036038101906102d6919061262f565b610a9e565b6040516102e891906125d7565b60405180910390f35b61030b6004803603810190610306919061296f565b610b96565b005b6103276004803603810190610322919061262f565b610bf8565b60405161033491906125d7565b60405180910390f35b6103576004803603810190610352919061262f565b610cf0565b60405161036491906125d7565b60405180910390f35b610375610e03565b005b610391600480360381019061038c91906129f2565b610f65565b60405161039e9190612523565b60405180910390f35b60007f80ac58cd000000000000000000000000000000000000000000000000000000007bffffffffffffffffffffffffffffffffffffffffffffffffffffffff1916827bffffffffffffffffffffffffffffffffffffffffffffffffffffffff1916148061047257507f5b5e139f000000000000000000000000000000000000000000000000000000007bffffffffffffffffffffffffffffffffffffffffffffffffffffffff1916827bffffffffffffffffffffffffffffffffffffffffffffffffffffffff1916145b80610482575061048182611092565b5b9050919050565b60606000805461049890612a61565b80601f01602080910402602001604051908101604052809291908181526020018280546104c490612a61565b80156105115780601f106104e657610100808354040283529160200191610511565b820191906000526020600020905b8154815290600101906020018083116104f457829003601f168201915b5050505050905090565b6000610526826110fc565b6004600083815260200190815260200160002060009054906101000a900473ffffffffffffffffffffffffffffffffffffffff169050919050565b600061056c8261086f565b90508073ffffffffffffffffffffffffffffffffffffffff168373ffffffffffffffffffffffffffffffffffffffff1614156105dd576040517f08c379a00000000000000000000000000000000000000000000000000000000081526004016105d490612b05565b60405180910390fd5b8073ffffffffffffffffffffffffffffffffffffffff166105fc611147565b73ffffffffffffffffffffffffffffffffffffffff16148061062b575061062a81610625611147565b610f65565b5b61066a576040517f08c379a000000000000000000000000000000000000000000000000000000000815260040161066190612b97565b60405180910390fd5b610674838361114f565b505050565b61068a610684611147565b82611208565b6106c9576040517f08c379a00000000000000000000000000000000000000000000000000000000081526004016106c090612c29565b60405180910390fd5b6106d483838361129d565b505050565b6060600061070d6106e984611597565b6040516020016106f99190612cd1565b60405160208183030381529060405261166f565b905061074e6040518060400160405280600d81526020017f72616e64202d20736565643a2000000000000000000000000000000000000000815250826116a2565b6009805490508161075f9190612d22565b90506107a06040518060400160405280601381526020017f72616e64202d20666972737420776f72643a2000000000000000000000000000815250826116a2565b600981815481106107b4576107b3612d53565b5b9060005260206000200180546107c990612a61565b80601f01602080910402602001604051908101604052809291908181526020018280546107f590612a61565b80156108425780601f1061081757610100808354040283529160200191610842565b820191906000526020600020905b81548152906001019060200180831161082557829003601f168201915b5050505050915050919050565b61086a83838360405180602001604052806000815250610b96565b505050565b60008061087b8361173e565b9050600073ffffffffffffffffffffffffffffffffffffffff168173ffffffffffffffffffffffffffffffffffffffff1614156108ed576040517f08c379a00000000000000000000000000000000000000000000000000000000081526004016108e490612dce565b60405180910390fd5b80915050919050565b60008073ffffffffffffffffffffffffffffffffffffffff168273ffffffffffffffffffffffffffffffffffffffff161415610967576040517f08c379a000000000000000000000000000000000000000000000000000000000815260040161095e90612e60565b60405180910390fd5b600360008373ffffffffffffffffffffffffffffffffffffffff1673ffffffffffffffffffffffffffffffffffffffff168152602001908152602001600020549050919050565b60006109ba600761177b565b90507f14ff5ea3cb7a2ff13bd0f569f09353223bf5923a1426f85f85c177f88e7c4ecf816040516109eb91906127b3565b60405180910390a150565b606060018054610a0590612a61565b80601f0160208091040260200160405190810160405280929190818152602001828054610a3190612a61565b8015610a7e5780601f10610a5357610100808354040283529160200191610a7e565b820191906000526020600020905b815481529060010190602001808311610a6157829003601f168201915b5050505050905090565b610a9a610a93611147565b8383611789565b5050565b60606000610ad2610aae84611597565b604051602001610abe9190612ecc565b60405160208183030381529060405261166f565b9050600a8054905081610ae59190612d22565b9050600a8181548110610afb57610afa612d53565b5b906000526020600020018054610b1090612a61565b80601f0160208091040260200160405190810160405280929190818152602001828054610b3c90612a61565b8015610b895780601f10610b5e57610100808354040283529160200191610b89565b820191906000526020600020905b815481529060010190602001808311610b6c57829003601f168201915b5050505050915050919050565b610ba7610ba1611147565b83611208565b610be6576040517f08c379a0000000000000000000000000000000000000000000000000000000008152600401610bdd90612c29565b60405180910390fd5b610bf2848484846118f6565b50505050565b60606000610c2c610c0884611597565b604051602001610c189190612f3a565b60405160208183030381529060405261166f565b9050600b8054905081610c3f9190612d22565b9050600b8181548110610c5557610c54612d53565b5b906000526020600020018054610c6a90612a61565b80601f0160208091040260200160405190810160405280929190818152602001828054610c9690612a61565b8015610ce35780601f10610cb857610100808354040283529160200191610ce3565b820191906000526020600020905b815481529060010190602001808311610cc657829003601f168201915b5050505050915050919050565b6060610cfb826110fc565b6000600660008481526020019081526020016000208054610d1b90612a61565b80601f0160208091040260200160405190810160405280929190818152602001828054610d4790612a61565b8015610d945780601f10610d6957610100808354040283529160200191610d94565b820191906000526020600020905b815481529060010190602001808311610d7757829003601f168201915b505050505090506000610da5611952565b9050600081511415610dbb578192505050610dfe565b600082511115610df0578082604051602001610dd8929190612f5c565b60405160208183030381529060405292505050610dfe565b610df984611969565b925050505b919050565b6000610e0f600761177b565b90506000610e1c826106d9565b90506000610e2983610a9e565b90506000610e3684610bf8565b90506000838383604051602001610e4f93929190612f80565b60405160208183030381529060405290506000600882604051602001610e76929190613091565b60405160208183030381529060405290506000610ebb83610e96846119d1565b604051602001610ea7929190613216565b6040516020818303038152906040526119d1565b9050600081604051602001610ed091906132a7565b6040516020818303038152906040529050610eeb3389611b69565b610ef58882611b87565b610f1860405180606001604052806025815260200161392b602591398933611bfb565b610f226007611c9a565b7febb98688741ffa4c7589bf325de30cf7becb63de567842e1ccdb6cb949fdc82c3389604051610f539291906132c9565b60405180910390a15050505050505050565b6000600560008473ffffffffffffffffffffffffffffffffffffffff1673ffffffffffffffffffffffffffffffffffffffff16815260200190815260200160002060008373ffffffffffffffffffffffffffffffffffffffff1673ffffffffffffffffffffffffffffffffffffffff16815260200190815260200160002060009054906101000a900460ff16905092915050565b61108f8160405160240161100d91906125d7565b6040516020818303038152906040527f41304fac000000000000000000000000000000000000000000000000000000007bffffffffffffffffffffffffffffffffffffffffffffffffffffffff19166020820180517bffffffffffffffffffffffffffffffffffffffffffffffffffffffff8381831617835250505050611cb0565b50565b60007f01ffc9a7000000000000000000000000000000000000000000000000000000007bffffffffffffffffffffffffffffffffffffffffffffffffffffffff1916827bffffffffffffffffffffffffffffffffffffffffffffffffffffffff1916149050919050565b61110581611cd9565b611144576040517f08c379a000000000000000000000000000000000000000000000000000000000815260040161113b90612dce565b60405180910390fd5b50565b600033905090565b816004600083815260200190815260200160002060006101000a81548173ffffffffffffffffffffffffffffffffffffffff021916908373ffffffffffffffffffffffffffffffffffffffff160217905550808273ffffffffffffffffffffffffffffffffffffffff166111c28361086f565b73ffffffffffffffffffffffffffffffffffffffff167f8c5be1e5ebec7d5bd14f71427d1e84f3dd0314c0f7b2291e5b200ac8c7c3b92560405160405180910390a45050565b6000806112148361086f565b90508073ffffffffffffffffffffffffffffffffffffffff168473ffffffffffffffffffffffffffffffffffffffff16148061125657506112558185610f65565b5b8061129457508373ffffffffffffffffffffffffffffffffffffffff1661127c8461051b565b73ffffffffffffffffffffffffffffffffffffffff16145b91505092915050565b8273ffffffffffffffffffffffffffffffffffffffff166112bd8261086f565b73ffffffffffffffffffffffffffffffffffffffff1614611313576040517f08c379a000000000000000000000000000000000000000000000000000000000815260040161130a90613364565b60405180910390fd5b600073ffffffffffffffffffffffffffffffffffffffff168273ffffffffffffffffffffffffffffffffffffffff161415611383576040517f08c379a000000000000000000000000000000000000000000000000000000000815260040161137a906133f6565b60405180910390fd5b6113908383836001611d1a565b8273ffffffffffffffffffffffffffffffffffffffff166113b08261086f565b73ffffffffffffffffffffffffffffffffffffffff1614611406576040517f08c379a00000000000000000000000000000000000000000000000000000000081526004016113fd90613364565b60405180910390fd5b6004600082815260200190815260200160002060006101000a81549073ffffffffffffffffffffffffffffffffffffffff02191690556001600360008573ffffffffffffffffffffffffffffffffffffffff1673ffffffffffffffffffffffffffffffffffffffff168152602001908152602001600020600082825403925050819055506001600360008473ffffffffffffffffffffffffffffffffffffffff1673ffffffffffffffffffffffffffffffffffffffff16815260200190815260200160002060008282540192505081905550816002600083815260200190815260200160002060006101000a81548173ffffffffffffffffffffffffffffffffffffffff021916908373ffffffffffffffffffffffffffffffffffffffff160217905550808273ffffffffffffffffffffffffffffffffffffffff168473ffffffffffffffffffffffffffffffffffffffff167fddf252ad1be2c89b69c2b068fc378daa952ba7f163c4a11628f55a4df523b3ef60405160405180910390a46115928383836001611e40565b505050565b6060600060016115a684611e46565b01905060008167ffffffffffffffff8111156115c5576115c4612844565b5b6040519080825280601f01601f1916602001820160405280156115f75781602001600182028036833780820191505090505b509050600082602001820190505b600115611664578080600190039150507f3031323334353637383961626364656600000000000000000000000000000000600a86061a8153600a858161164e5761164d612cf3565b5b049450600085141561165f57611664565b611605565b819350505050919050565b6000816040516020016116829190613416565b6040516020818303038152906040528051906020012060001c9050919050565b61173a82826040516024016116b892919061342d565b6040516020818303038152906040527fb60e72cc000000000000000000000000000000000000000000000000000000007bffffffffffffffffffffffffffffffffffffffffffffffffffffffff19166020820180517bffffffffffffffffffffffffffffffffffffffffffffffffffffffff8381831617835250505050611cb0565b5050565b60006002600083815260200190815260200160002060009054906101000a900473ffffffffffffffffffffffffffffffffffffffff169050919050565b600081600001549050919050565b8173ffffffffffffffffffffffffffffffffffffffff168373ffffffffffffffffffffffffffffffffffffffff1614156117f8576040517f08c379a00000000000000000000000000000000000000000000000000000000081526004016117ef906134a9565b60405180910390fd5b80600560008573ffffffffffffffffffffffffffffffffffffffff1673ffffffffffffffffffffffffffffffffffffffff16815260200190815260200160002060008473ffffffffffffffffffffffffffffffffffffffff1673ffffffffffffffffffffffffffffffffffffffff16815260200190815260200160002060006101000a81548160ff0219169083151502179055508173ffffffffffffffffffffffffffffffffffffffff168373ffffffffffffffffffffffffffffffffffffffff167f17307eab39ab6107e8899845ad3d59bd9653f200f220920489ca2b5937696c31836040516118e99190612523565b60405180910390a3505050565b61190184848461129d565b61190d84848484611f99565b61194c576040517f08c379a00000000000000000000000000000000000000000000000000000000081526004016119439061353b565b60405180910390fd5b50505050565b606060405180602001604052806000815250905090565b6060611974826110fc565b600061197e611952565b9050600081511161199e57604051806020016040528060008152506119c9565b806119a884611597565b6040516020016119b9929190612f5c565b6040516020818303038152906040525b915050919050565b606060008251905060008114156119fa5760405180602001604052806000815250915050611b64565b60006003600283611a0b919061358a565b611a1591906135e0565b6004611a219190613611565b90506000602082611a32919061358a565b67ffffffffffffffff811115611a4b57611a4a612844565b5b6040519080825280601f01601f191660200182016040528015611a7d5781602001600182028036833780820191505090505b5090506000604051806060016040528060408152602001613950604091399050600181016020830160005b86811015611b215760038101905062ffffff818a015116603f8160121c168401518060081b905060ff603f83600c1c1686015116810190508060081b905060ff603f8360061c1686015116810190508060081b905060ff603f831686015116810190508060e01b90508084526004840193505050611aa8565b506003860660018114611b3b5760028114611b4b57611b56565b613d3d60f01b6002830352611b56565b603d60f81b60018303525b508484525050819450505050505b919050565b611b83828260405180602001604052806000815250612130565b5050565b611b9082611cd9565b611bcf576040517f08c379a0000000000000000000000000000000000000000000000000000000008152600401611bc6906136dd565b60405180910390fd5b80600660008481526020019081526020016000209080519060200190611bf69291906123cc565b505050565b611c95838383604051602401611c13939291906136fd565b6040516020818303038152906040527f1c7ec448000000000000000000000000000000000000000000000000000000007bffffffffffffffffffffffffffffffffffffffffffffffffffffffff19166020820180517bffffffffffffffffffffffffffffffffffffffffffffffffffffffff8381831617835250505050611cb0565b505050565b6001816000016000828254019250508190555050565b60008151905060006a636f6e736f6c652e6c6f679050602083016000808483855afa5050505050565b60008073ffffffffffffffffffffffffffffffffffffffff16611cfb8361173e565b73ffffffffffffffffffffffffffffffffffffffff1614159050919050565b6001811115611e3a57600073ffffffffffffffffffffffffffffffffffffffff168473ffffffffffffffffffffffffffffffffffffffff1614611dae5780600360008673ffffffffffffffffffffffffffffffffffffffff1673ffffffffffffffffffffffffffffffffffffffff1681526020019081526020016000206000828254611da6919061373b565b925050819055505b600073ffffffffffffffffffffffffffffffffffffffff168373ffffffffffffffffffffffffffffffffffffffff1614611e395780600360008573ffffffffffffffffffffffffffffffffffffffff1673ffffffffffffffffffffffffffffffffffffffff1681526020019081526020016000206000828254611e31919061358a565b925050819055505b5b50505050565b50505050565b600080600090507a184f03e93ff9f4daa797ed6e38ed64bf6a1f0100000000000000008310611ea4577a184f03e93ff9f4daa797ed6e38ed64bf6a1f0100000000000000008381611e9a57611e99612cf3565b5b0492506040810190505b6d04ee2d6d415b85acef81000000008310611ee1576d04ee2d6d415b85acef81000000008381611ed757611ed6612cf3565b5b0492506020810190505b662386f26fc100008310611f1057662386f26fc100008381611f0657611f05612cf3565b5b0492506010810190505b6305f5e1008310611f39576305f5e1008381611f2f57611f2e612cf3565b5b0492506008810190505b6127108310611f5e576127108381611f5457611f53612cf3565b5b0492506004810190505b60648310611f815760648381611f7757611f76612cf3565b5b0492506002810190505b600a8310611f90576001810190505b80915050919050565b6000611fba8473ffffffffffffffffffffffffffffffffffffffff1661218b565b15612123578373ffffffffffffffffffffffffffffffffffffffff1663150b7a02611fe3611147565b8786866040518563ffffffff1660e01b815260040161200594939291906137c4565b602060405180830381600087803b15801561201f57600080fd5b505af192505050801561205057506040513d601f19601f8201168201806040525081019061204d9190613825565b60015b6120d3573d8060008114612080576040519150601f19603f3d011682016040523d82523d6000602084013e612085565b606091505b506000815114156120cb576040517f08c379a00000000000000000000000000000000000000000000000000000000081526004016120c29061353b565b60405180910390fd5b805181602001fd5b63150b7a0260e01b7bffffffffffffffffffffffffffffffffffffffffffffffffffffffff1916817bffffffffffffffffffffffffffffffffffffffffffffffffffffffff191614915050612128565b600190505b949350505050565b61213a83836121ae565b6121476000848484611f99565b612186576040517f08c379a000000000000000000000000000000000000000000000000000000000815260040161217d9061353b565b60405180910390fd5b505050565b6000808273ffffffffffffffffffffffffffffffffffffffff163b119050919050565b600073ffffffffffffffffffffffffffffffffffffffff168273ffffffffffffffffffffffffffffffffffffffff16141561221e576040517f08c379a00000000000000000000000000000000000000000000000000000000081526004016122159061389e565b60405180910390fd5b61222781611cd9565b15612267576040517f08c379a000000000000000000000000000000000000000000000000000000000815260040161225e9061390a565b60405180910390fd5b612275600083836001611d1a565b61227e81611cd9565b156122be576040517f08c379a00000000000000000000000000000000000000000000000000000000081526004016122b59061390a565b60405180910390fd5b6001600360008473ffffffffffffffffffffffffffffffffffffffff1673ffffffffffffffffffffffffffffffffffffffff16815260200190815260200160002060008282540192505081905550816002600083815260200190815260200160002060006101000a81548173ffffffffffffffffffffffffffffffffffffffff021916908373ffffffffffffffffffffffffffffffffffffffff160217905550808273ffffffffffffffffffffffffffffffffffffffff16600073ffffffffffffffffffffffffffffffffffffffff167fddf252ad1be2c89b69c2b068fc378daa952ba7f163c4a11628f55a4df523b3ef60405160405180910390a46123c8600083836001611e40565b5050565b8280546123d890612a61565b90600052602060002090601f0160209004810192826123fa5760008555612441565b82601f1061241357805160ff1916838001178555612441565b82800160010185558215612441579182015b82811115612440578251825591602001919060010190612425565b5b50905061244e9190612452565b5090565b5b8082111561246b576000816000905550600101612453565b5090565b6000604051905090565b600080fd5b600080fd5b60007fffffffff0000000000000000000000000000000000000000000000000000000082169050919050565b6124b881612483565b81146124c357600080fd5b50565b6000813590506124d5816124af565b92915050565b6000602082840312156124f1576124f0612479565b5b60006124ff848285016124c6565b91505092915050565b60008115159050919050565b61251d81612508565b82525050565b60006020820190506125386000830184612514565b92915050565b600081519050919050565b600082825260208201905092915050565b60005b8381101561257857808201518184015260208101905061255d565b83811115612587576000848401525b50505050565b6000601f19601f8301169050919050565b60006125a98261253e565b6125b38185612549565b93506125c381856020860161255a565b6125cc8161258d565b840191505092915050565b600060208201905081810360008301526125f1818461259e565b905092915050565b6000819050919050565b61260c816125f9565b811461261757600080fd5b50565b60008135905061262981612603565b92915050565b60006020828403121561264557612644612479565b5b60006126538482850161261a565b91505092915050565b600073ffffffffffffffffffffffffffffffffffffffff82169050919050565b60006126878261265c565b9050919050565b6126978161267c565b82525050565b60006020820190506126b2600083018461268e565b92915050565b6126c18161267c565b81146126cc57600080fd5b50565b6000813590506126de816126b8565b92915050565b600080604083850312156126fb576126fa612479565b5b6000612709858286016126cf565b925050602061271a8582860161261a565b9150509250929050565b60008060006060848603121561273d5761273c612479565b5b600061274b868287016126cf565b935050602061275c868287016126cf565b925050604061276d8682870161261a565b9150509250925092565b60006020828403121561278d5761278c612479565b5b600061279b848285016126cf565b91505092915050565b6127ad816125f9565b82525050565b60006020820190506127c860008301846127a4565b92915050565b6127d781612508565b81146127e257600080fd5b50565b6000813590506127f4816127ce565b92915050565b6000806040838503121561281157612810612479565b5b600061281f858286016126cf565b9250506020612830858286016127e5565b9150509250929050565b600080fd5b600080fd5b7f4e487b7100000000000000000000000000000000000000000000000000000000600052604160045260246000fd5b61287c8261258d565b810181811067ffffffffffffffff8211171561289b5761289a612844565b5b80604052505050565b60006128ae61246f565b90506128ba8282612873565b919050565b600067ffffffffffffffff8211156128da576128d9612844565b5b6128e38261258d565b9050602081019050919050565b82818337600083830152505050565b600061291261290d846128bf565b6128a4565b90508281526020810184848401111561292e5761292d61283f565b5b6129398482856128f0565b509392505050565b600082601f8301126129565761295561283a565b5b81356129668482602086016128ff565b91505092915050565b6000806000806080858703121561298957612988612479565b5b6000612997878288016126cf565b94505060206129a8878288016126cf565b93505060406129b98782880161261a565b925050606085013567ffffffffffffffff8111156129da576129d961247e565b5b6129e687828801612941565b91505092959194509250565b60008060408385031215612a0957612a08612479565b5b6000612a17858286016126cf565b9250506020612a28858286016126cf565b9150509250929050565b7f4e487b7100000000000000000000000000000000000000000000000000000000600052602260045260246000fd5b60006002820490506001821680612a7957607f821691505b60208210811415612a8d57612a8c612a32565b5b50919050565b7f4552433732313a20617070726f76616c20746f2063757272656e74206f776e6560008201527f7200000000000000000000000000000000000000000000000000000000000000602082015250565b6000612aef602183612549565b9150612afa82612a93565b604082019050919050565b60006020820190508181036000830152612b1e81612ae2565b9050919050565b7f4552433732313a20617070726f76652063616c6c6572206973206e6f7420746f60008201527f6b656e206f776e6572206f7220617070726f76656420666f7220616c6c000000602082015250565b6000612b81603d83612549565b9150612b8c82612b25565b604082019050919050565b60006020820190508181036000830152612bb081612b74565b9050919050565b7f4552433732313a2063616c6c6572206973206e6f7420746f6b656e206f776e6560008201527f72206f7220617070726f76656400000000000000000000000000000000000000602082015250565b6000612c13602d83612549565b9150612c1e82612bb7565b604082019050919050565b60006020820190508181036000830152612c4281612c06565b9050919050565b600081905092915050565b7f46495253545f574f524400000000000000000000000000000000000000000000600082015250565b6000612c8a600a83612c49565b9150612c9582612c54565b600a82019050919050565b6000612cab8261253e565b612cb58185612c49565b9350612cc581856020860161255a565b80840191505092915050565b6000612cdc82612c7d565b9150612ce88284612ca0565b915081905092915050565b7f4e487b7100000000000000000000000000000000000000000000000000000000600052601260045260246000fd5b6000612d2d826125f9565b9150612d38836125f9565b925082612d4857612d47612cf3565b5b828206905092915050565b7f4e487b7100000000000000000000000000000000000000000000000000000000600052603260045260246000fd5b7f4552433732313a20696e76616c696420746f6b656e2049440000000000000000600082015250565b6000612db8601883612549565b9150612dc382612d82565b602082019050919050565b60006020820190508181036000830152612de781612dab565b9050919050565b7f4552433732313a2061646472657373207a65726f206973206e6f74206120766160008201527f6c6964206f776e65720000000000000000000000000000000000000000000000602082015250565b6000612e4a602983612549565b9150612e5582612dee565b604082019050919050565b60006020820190508181036000830152612e7981612e3d565b9050919050565b7f5345434f4e445f574f5244000000000000000000000000000000000000000000600082015250565b6000612eb6600b83612c49565b9150612ec182612e80565b600b82019050919050565b6000612ed782612ea9565b9150612ee38284612ca0565b915081905092915050565b7f54484952445f574f524400000000000000000000000000000000000000000000600082015250565b6000612f24600a83612c49565b9150612f2f82612eee565b600a82019050919050565b6000612f4582612f17565b9150612f518284612ca0565b915081905092915050565b6000612f688285612ca0565b9150612f748284612ca0565b91508190509392505050565b6000612f8c8286612ca0565b9150612f988285612ca0565b9150612fa48284612ca0565b9150819050949350505050565b60008190508160005260206000209050919050565b60008154612fd381612a61565b612fdd8186612c49565b94506001821660008114612ff857600181146130095761303c565b60ff1983168652818601935061303c565b61301285612fb1565b60005b8381101561303457815481890152600182019150602081019050613015565b838801955050505b50505092915050565b7f3c2f746578743e3c2f7376673e00000000000000000000000000000000000000600082015250565b600061307b600d83612c49565b915061308682613045565b600d82019050919050565b600061309d8285612fc6565b91506130a98284612ca0565b91506130b48261306e565b91508190509392505050565b7f7b226e616d65223a202200000000000000000000000000000000000000000000600082015250565b60006130f6600a83612c49565b9150613101826130c0565b600a82019050919050565b7f222c20226465736372697074696f6e223a20224120686967686c79206163636c60008201527f61696d656420636f6c6c656374696f6e206f6620737175617265732e222c202260208201527f696d616765223a2022646174613a696d6167652f7376672b786d6c3b6261736560408201527f36342c0000000000000000000000000000000000000000000000000000000000606082015250565b60006131b4606383612c49565b91506131bf8261310c565b606382019050919050565b7f227d000000000000000000000000000000000000000000000000000000000000600082015250565b6000613200600283612c49565b915061320b826131ca565b600282019050919050565b6000613221826130e9565b915061322d8285612ca0565b9150613238826131a7565b91506132448284612ca0565b915061324f826131f3565b91508190509392505050565b7f646174613a6170706c69636174696f6e2f6a736f6e3b6261736536342c000000600082015250565b6000613291601d83612c49565b915061329c8261325b565b601d82019050919050565b60006132b282613284565b91506132be8284612ca0565b915081905092915050565b60006040820190506132de600083018561268e565b6132eb60208301846127a4565b9392505050565b7f4552433732313a207472616e736665722066726f6d20696e636f72726563742060008201527f6f776e6572000000000000000000000000000000000000000000000000000000602082015250565b600061334e602583612549565b9150613359826132f2565b604082019050919050565b6000602082019050818103600083015261337d81613341565b9050919050565b7f4552433732313a207472616e7366657220746f20746865207a65726f2061646460008201527f7265737300000000000000000000000000000000000000000000000000000000602082015250565b60006133e0602483612549565b91506133eb82613384565b604082019050919050565b6000602082019050818103600083015261340f816133d3565b9050919050565b60006134228284612ca0565b915081905092915050565b60006040820190508181036000830152613447818561259e565b905061345660208301846127a4565b9392505050565b7f4552433732313a20617070726f766520746f2063616c6c657200000000000000600082015250565b6000613493601983612549565b915061349e8261345d565b602082019050919050565b600060208201905081810360008301526134c281613486565b9050919050565b7f4552433732313a207472616e7366657220746f206e6f6e20455243373231526560008201527f63656976657220696d706c656d656e7465720000000000000000000000000000602082015250565b6000613525603283612549565b9150613530826134c9565b604082019050919050565b6000602082019050818103600083015261355481613518565b9050919050565b7f4e487b7100000000000000000000000000000000000000000000000000000000600052601160045260246000fd5b6000613595826125f9565b91506135a0836125f9565b9250827fffffffffffffffffffffffffffffffffffffffffffffffffffffffffffffffff038211156135d5576135d461355b565b5b828201905092915050565b60006135eb826125f9565b91506135f6836125f9565b92508261360657613605612cf3565b5b828204905092915050565b600061361c826125f9565b9150613627836125f9565b9250817fffffffffffffffffffffffffffffffffffffffffffffffffffffffffffffffff04831182151516156136605761365f61355b565b5b828202905092915050565b7f45524337323155524953746f726167653a2055524920736574206f66206e6f6e60008201527f6578697374656e7420746f6b656e000000000000000000000000000000000000602082015250565b60006136c7602e83612549565b91506136d28261366b565b604082019050919050565b600060208201905081810360008301526136f6816136ba565b9050919050565b60006060820190508181036000830152613717818661259e565b905061372660208301856127a4565b613733604083018461268e565b949350505050565b6000613746826125f9565b9150613751836125f9565b9250828210156137645761376361355b565b5b828203905092915050565b600081519050919050565b600082825260208201905092915050565b60006137968261376f565b6137a0818561377a565b93506137b081856020860161255a565b6137b98161258d565b840191505092915050565b60006080820190506137d9600083018761268e565b6137e6602083018661268e565b6137f360408301856127a4565b8181036060830152613805818461378b565b905095945050505050565b60008151905061381f816124af565b92915050565b60006020828403121561383b5761383a612479565b5b600061384984828501613810565b91505092915050565b7f4552433732313a206d696e7420746f20746865207a65726f2061646472657373600082015250565b6000613888602083612549565b915061389382613852565b602082019050919050565b600060208201905081810360008301526138b78161387b565b9050919050565b7f4552433732313a20746f6b656e20616c7265616479206d696e74656400000000600082015250565b60006138f4601c83612549565b91506138ff826138be565b602082019050919050565b60006020820190508181036000830152613923816138e7565b905091905056fe416e204e465420772f20494420257320686173206265656e206d696e74656420746f2025734142434445464748494a4b4c4d4e4f505152535455565758595a6162636465666768696a6b6c6d6e6f707172737475767778797a303132333435363738392b2fa2646970667358221220540f97d8f4701c2500524594e1c5d9982b1c877f8331dc23b8377edc6e182dea64736f6c634300080900333c73766720786d6c6e733d27687474703a2f2f7777772e77332e6f72672f323030302f73766727207072657365727665417370656374526174696f3d27784d696e594d696e206d656574272076696577426f783d273020302033353020333530273e3c7374796c653e2e62617365207b2066696c6c3a2077686974653b20666f6e742d66616d696c793a2073657269663b20666f6e742d73697a653a20323470783b207d3c2f7374796c653e3c726563742077696474683d273130302527206865696768743d2731303025272066696c6c3d27626c61636b27202f3e3c7465787420783d273530252720793d273530252720636c6173733d27626173652720646f6d696e616e742d626173656c696e653d276d6964646c652720746578742d616e63686f723d276d6964646c65273e",
  "linkReferences": {},
  "deployedLinkReferences": {}
}